:100000000C9434000C943E000C943E000C943E0082
:100010000C943E000C943E000C943E000C943E0068
:100020000C943E000C943E000C943E000C943E0058
:100030000C943E000C943E000C943E000C943E0048
:100040000C943E000C943E000C943E000C943E0038
:100050000C943E000C943E000C943E000C943E0028
:100060000C943E000C943E0011241FBECFEFD8E04C
:10007000DEBFCDBF0E9402010C9420010C94000051
:10008000599A000059980895CF93C82F662311F00C
:10009000589A01C058985F98529A539A549A559A10
:1000A0005D985C985B985A98CC230CF45D9AC6FDD9
:1000B0005C9AC5FD5B9AC4FD5A9A0E9440005D9807
:1000C0005C985B985A98C3FD5D9AC2FD5C9AC1FD2D
:1000D0005B9AC0FD5A9A0E9440005A9A5B9A5C9AB9
:1000E0005D9ACF910895882311F0589A01C05898CD
:1000F0005F9A5298539854985598599A00004A9B81
:1001000002C080E101C080E04B9980624C9980641C
:100110004D99806859980000599A00004A99816069
:100120004B9982604C9984604D99886059980895E4
:1001300080E00E9473008823DCF300C000C080E0F0
:100140000E9473000895CF93C82F0E94980060E02A
:100150008C2F0E944400CF91089581E00E94A3005B
:100160000895CF93C82F0E949800CA3049F4803474
:1001700010F080E001C080E480580E94A30004C019
:1001800061E08C2F0E944400CF910895CF93C82F37
:10019000509A579A519A529A539A549A559A8FE96B
:1001A0009FE00197F1F700C000005B9A5A9A0E9405
:1001B000400081EE94E00197F1F700C000000E943A
:1001C000400095E19A95F1F700000E94400085E11A
:1001D0008A95F1F700005A980E94400095E19A959F
:1001E000F1F7000088E20E94A30088E00E94A300CB
:1001F0000E94AD0086E00E94A3008C2F0E94A30005
:10020000CF91089515B881E084B98EE00E94C600B0
:1002100083E50E94B100289A2FE38DE093E02150FE
:1002200080409040E1F700C0000028982FE38DE067
:1002300093E0215080409040E1F700C00000E8CFFB
:04024000F894FFCF60
:00000001FF
