:100000000C9434000C9451000C9451000C945C023C
:100010000C9451000C9451000C9451000C9451001C
:100020000C9451000C9451000C9451000C943C021F
:100030000C9451000C9451000C9451000C945100FC
:100040000C9451000C9451000C9451000C945100EC
:100050000C9451000C9451000C9451000C945100DC
:100060000C9451000C94510011241FBECFEFD8E026
:10007000DEBFCDBF11E0A0E0B1E0E8E9F5E002C0ED
:1000800005900D92A033B107D9F721E0A0E3B1E0CC
:1000900001C01D92A637B207E1F70E9428020C9416
:1000A000CA020C940000599A000059980895CF9301
:1000B000C82F662311F0589A01C058985F98529A39
:1000C000539A549A559A5D985C985B985A98CC23A9
:1000D0000CF45D9AC6FD5C9AC5FD5B9AC4FD5A9A04
:1000E0000E9453005D985C985B985A98C3FD5D9A96
:1000F000C2FD5C9AC1FD5B9AC0FD5A9A0E945300F2
:100100005A9A5B9A5C9A5D9ACF910895882311F070
:10011000589A01C058985F9A529853985498559895
:10012000599A00004A9B02C080E101C080E04B99CF
:1001300080624C9980644D99806859980000599A62
:1001400000004A9981604B9982604C9984604D9976
:1001500088605998089580E00E9486008823DCF327
:1001600000C000C080E00E9486000895CF93C82F91
:100170000E94AB0060E08C2F0E945700CF91089541
:10018000611104C080580E94B600089580540E94F6
:10019000B600089581E00E94B600089582E00E94B2
:1001A000B6000895CF93C82F0E94AB00CA3049F41F
:1001B000803410F080E001C080E480580E94B600D6
:1001C00004C061E08C2F0E945700CF910895CF9317
:1001D000DF93EC012196FC018081882329F00E94A5
:1001E000D20089918111FBCFDF91CF910895CF93F8
:1001F000C82F509A579A519A529A539A549A559A8C
:100200008FE99FE00197F1F700C000005B9A5A9ACE
:100210000E94530081EE94E00197F1F700C00000C6
:100220000E94530095E19A95F1F700000E94530057
:1002300085E18A95F1F700005A980E94530095E1F4
:100240009A95F1F7000088E20E94B60088E00E94CB
:10025000B6000E94CA0086E00E94B6008C2F0E9461
:10026000B600CF9108958091540185B90895809189
:100270003301811105C0E3E3F1E083858F5F83875C
:1002800080913E018C3331F4E3E3F1E013868689FB
:100290008F5F868B80914901883131F4E3E3F1E08F
:1002A000168A81A18F5F81A3809154018F3121F043
:1002B00080915F018C3049F00E94CA000E94CE00FC
:1002C00082E291E00E94E700FFCF08950F931F9311
:1002D000CF93DF93CDB7DEB7A0970FB6F894DEBF0C
:1002E0000FBECDBF03E311E0F80180814AE050E08A
:1002F00064E371E090E00E948A02F80183854AE09D
:1003000050E06FE371E090E00E948A02F801808182
:100310004AE050E06AE471E090E00E948A02F8014D
:1003200080814AE050E065E571E090E00E948A0239
:10033000F80180814AE050E060E671E090E00E94C0
:100340008A02F80180814AE050E06CE671E090E0BA
:100350000E948A0280E1E0E0F1E0DE011196019066
:100360000D928A95E1F780E1E1E1F1E0DE0151963D
:1003700001900D928A95E1F7F80181AD8F8384ADEC
:100380008A8786A58D8783A1888B87898887808DBA
:10039000898784858B8785858C8781818E878281FB
:1003A0008F8760E080E00E94C000CE0101960E942D
:1003B000E70061E080E00E94C000CE0141960E940B
:1003C000E700A0960FB6F894DEBF0FBECDBFDF9159
:1003D000CF911F910F910895E1E8F0E0808188604E
:1003E0008083AFE6B0E08C9182608C9382E19AE7E3
:1003F00090938900809388008081846080837894C2
:100400000895E9E6F0E0808182608083E8E6F0E02C
:1004100080818160808308958EE00E94F7000E94B1
:10042000CA000E94EC010E94010215B88FE384B952
:10043000E3E3F1E081E081A38CE084A720EE37E0E4
:1004400030AF27AB868B138610821092300108954F
:100450000E940C0280913301C3E3D1E09881981788
:10046000F1F383E70E94D2000E9437010E9433011A
:100470000E9466018881F2CF1F920F920FB60F92F1
:1004800011248F93EF93FF93E3E3F1E080818F5F7B
:10049000808380FD02C02D9A01C02D988091330188
:1004A0008C3310F010923301FF91EF918F910F90E8
:1004B0000FBE0F901F9018951F920F920FB60F92BC
:1004C00011248F9380916B008093320180FF0DC0C7
:1004D00080913101816080933101809130018111DF
:1004E00013C087E0809330010FC081FF06C0809168
:1004F000310182608093310107C082FF05C0809185
:1005000031018460809331018F910F900FBE0F9065
:100510001F9018954532510520F4423010F00C948C
:100520009502FB011082CB010895BB274A3031F4BC
:10053000992322F4BDE2909581959F4F0C94A102DE
:10054000BB27FB015527AA27880F991FAA1FA417AD
:1005500010F0A41B83955051B9F7A05DAA3308F0A1
:10056000A95DA193009779F7B111B1931192CB01D5
:100570000C94BA02DC01FC01672F71917723E1F73B
:10058000329704C07C916D9370836291AE17BF0760
:08059000C8F30895F894FFCFB1
:10059800444154453A20323031362F31322F3233EC
:1005A800002054696D653A2031353A32333A30319A
:1005B800200041504F43414C5950534521210000E0
:00000001FF
