S00F000050726F6772616D2E737265633D
S11300000C9434000C9451000C9451000C94510045
S11300100C9448030C9451000C9451000C9451001E
S11300200C9451000C9451000C9451000C942D0329
S11300300C9451000C9451000C9451000C945100F8
S11300400C9451000C9451000C9451000C945100E8
S11300500C9451000C9451000C9451000C945100D8
S11300600C9451000C94510011241FBECFEFD8E022
S1130070DEBFCDBF11E0A0E0B1E0E4EBF9E002C0E7
S113008005900D92AC36B107D9F721E0ACE6B1E0AA
S113009001C01D92A23DB207E1F70E94F6020C9442
S11300A0D8040C940000599A000059980895CF93ED
S11300B0C82F662311F0589A01C058985F98529A35
S11300C0539A549A559A5D985C985B985A98CC23A5
S11300D00CF45D9AC6FD5C9AC5FD5B9AC4FD5A9A00
S11300E00E9453005D985C985B985A98C3FD5D9A92
S11300F0C2FD5C9AC1FD5B9AC0FD5A9A0E945300EE
S11301005A9A5B9A5C9A5D9ACF910895882311F06C
S1130110589A01C058985F9A529853985498559891
S1130120599A00004A9B02C080E101C080E04B99CB
S113013080624C9980644D99806859980000599A5E
S113014000004A9981604B9982604C9984604D9972
S113015088605998089580E00E9486008823DCF323
S113016000C000C080E00E9486000895CF93C82F8D
S11301700E94AB0060E08C2F0E945700CF9108953D
S1130180611104C080580E94B600089580540E94F2
S1130190B600089581E00E94B600089582E00E94AE
S11301A0B6000895CF93C82F0E94AB00CA3049F41B
S11301B0803410F080E001C080E480580E94B600D2
S11301C004C061E08C2F0E945700CF910895CF9313
S11301D0DF93EC012196FC018081882329F00E94A1
S11301E0D20089918111FBCFDF91CF910895CF93F4
S11301F0C82F509A579A519A529A539A549A559A88
S11302008FE99FE00197F1F700C000005B9A5A9ACA
S11302100E94530081EE94E00197F1F700C00000C2
S11302200E94530095E19A95F1F700000E94530053
S113023085E18A95F1F700005A980E94530095E1F0
S11302409A95F1F7000088E20E94B60088E00E94C7
S1130250B6000E94CA0086E00E94B6008C2F0E945D
S1130260B600CF91089580919F0185B9089580913A
S11302706F01811105C0EFE6F1E080898F5F808B0B
S113028080917F018C3331F4EFE6F1E0108A80A194
S11302908F5F80A380918F01883131F4EFE6F1E024
S11302A010A280A98F5F80AB80919F018F3120F4D1
S11302B08091AF018C3049F00E94CA000E94CE00A8
S11302C082E291E00E94E700FFCF0895EF92FF924F
S11302D00F931F93CF93DF93CDB7DEB7A0970FB6DD
S11302E0F894DEBF0FBECDBFF82EE62E0FE611E068
S11302F0F80180814AE060E771E090E00E94A30485
S1130300F80180894AE060E871E090E00E94A3046B
S1130310F80180A14AE060E971E090E00E94A30442
S1130320F80180A94AE060EA71E090E00E94A30429
S11303308091AF014AE060EB71E090E00E94A30479
S11303404AE061EC71E08091BF019091C0010E948C
S1130350A30490E1E0E0F1E0DE01119601900D923A
S11303609A95E1F790E1E1E1F1E0DE015196019027
S11303700D929A95E1F78091C1018F838091C2011A
S113038088878091C30189878091C4018A8780917D
S1130390B0018C878091B1018D87F80180A98A30E2
S11303A068F580E38F878091A001888B2DC080E35E
S11303B08F8B80919001888F31C080E38A8F8091E8
S11303C080018B8F35C080E38D8F809170018E8F7B
S11303D0F11003C08AE28F8FE8A260E080E00E94FF
S11303E0C000CE0101960E94E70061E080E00E9417
S11303F0C000CE0141960E94E70025C0EFE6F1E07F
S113040081A98F8782A9888B80918F018A3078F2A5
S1130410EFE6F1E081A18F8B82A1888F80917F012B
S11304208A3058F2EFE6F1E081898A8F82898B8FD6
S113043080916F018A3038F2EFE6F1E081818D8F8F
S113044082818E8FC5CFA0960FB6F894DEBF0FBE03
S1130450CDBFDF91CF911F910F91FF90EF90089541
S113046090916C019330F1F138F4913009F45AC051
S1130470923009F447C06AC09530A1F018F1963063
S113048009F064C08F3F39F4EFE6F1E080818F5FBB
S1130490808363E55CC0EFE6F1E080818150808376
S11304A063E555C08F3F39F4EFE6F1E080898F5F53
S11304B0808B6DE44CC0EFE6F1E080898150808B45
S11304C06DE445C08F3F39F4EFE6F1E080A18F5F22
S11304D080A368E43CC0EFE6F1E080A1815080A3F2
S11304E068E435C08F3F39F4EFE6F1E080A98F5F0F
S11304F080AB64E42CC0EFE6F1E080A9815080ABCE
S113050064E425C08F3F39F4EFEAF1E080818F5F26
S113051080836DE41CC0EFEAF1E080818150808328
S11305206DE415C08F3F49F4EFEBF1E080819181D8
S113053001969183808369E50AC0EFEBF1E0808145
S1130540918101979183808369E501C060E080E037
S11305500E94660181E00895E1E8F0E0808188600E
S11305608083AFE6B0E08C9182608C9384E29CE15E
S1130570909389008093880080818460808378943C
S11305800895ECE6F0E0808188638083E8E6F0E09B
S113059080818260808308958EE00E94F7000E942B
S11305A0CA000E94AC020E94C1021092D1011092B2
S11305B06D011092D00110926E0115B88FE384B9C9
S11305C0EFE6F1E081E080AB8CE08093AF0180EE58
S11305D097E09093C0018093BF0187E180A38BE3F0
S11305E0808B82E3808310926C0108950E94CC0278
S11305F010916F010E947504CFE6D1E088818117C4
S113060051F02D980E9437010E94330160E081E08F
S11306100E946601188190916C01992379F380916D
S1130620D00180FF08C0915090936C016AE280E091
S11306300E9466010BC081FF04C08FEF0E9430024C
S113064005C082FF03C08EEF0E9430021092D001D9
S113065090916C019111E3CFD1CF1F920F920FB6FD
S11306600F9211248F93EF93FF93EFE6F1E08081D3
S11306708F5F80832D9A80818C3310F010926F01EC
S1130680FF91EF918F910F900FBE0F901F901895CF
S11306901F920F920FB60F9211248F939F9396B1CE
S11306A08091D10189279093D10183FF0DC080915E
S11306B0D00181608093D00180916C01811113C0BD
S11306C087E080936C010FC084FF06C08091D00145
S11306D082608093D00107C085FF05C08091D0015E
S11306E084608093D0019F918F910F900FBE0F90E3
S11306F01F90189581E085B92FE986E891E0215093
S113070080409040E1F700C0000082E085B92FE905
S113071086E891E0215080409040E1F700C000005D
S113072084E085B92FE986E891E02150804090402B
S1130730E1F700C0000088E085B92FE986E891E080
S1130740215080409040E1F700C0000080E185B96D
S11307502FE986E891E0215080409040E1F700C005
S1130760000081E00895EFE6F1E090818081981720
S1130770A8F080E008952081921770F490812FE70B
S113078039EA43E0215030404040E1F700C0000026
S1130790815089F781E0089580E0089590916F0178
S11307A08FE729EA33E0815020403040E1F700C070
S11307B0000084E0EFE6F1E0DECF0E94CA0060E0D2
S11307C080E00E94C0008FE291E00E94E7002FE3E6
S11307D08DE093E0215080409040E1F700C000009C
S11307E081E008950E94CA0060E081E00E946601F1
S11307F02FE38DE093E0215080409040E1F700C06A
S1130800000081E008950F931F93CF93DF93CDB73A
S1130810DEB72A970FB6F894DEBF0FBECDBF00E057
S113082010E00E94CA0060E080E00E94C00088E3FB
S113083091E00E94E70061E080E00E94C0004AE08D
S1130840BE016F5F7F4FC8010E94A304CE010196D1
S11308500E94E7002FE38DE093E021508040904018
S1130860E1F700C000000F5F1F4F04311105C9F606
S113087081E02A960FB6F894DEBF0FBECDBFDF919C
S1130880CF911F910F9108950E94CA0060E080E00B
S11308900E94C00088E491E00E94E70061E080E0EB
S11308A00E94C00085E591E00E94E70093E033E0F8
S11308B054E042E021E08091D00180FF03C025B9DB
S11308C0915008C081FF02C045B909C082FF02C02F
S11308D055B905C01092D0019111EDCF04C010920A
S11308E0D001932FE8CF81E00895CF930E947A033B
S11308F0C82F0E94B303C80F0E94DD03C80F0E94D3
S1130900F203C80F0E940304C80F0E9444048C0F12
S1130910863061F40E94CA0060E080E00E94C0005A
S113092083E691E00E94E70081E00BC00E94CA00C8
S113093060E080E00E94C00083E691E00E94E7004E
S113094080E0CF910895BB274A3031F4992322F4F3
S1130950BDE2909581959F4F0C94AF04BB27FB019A
S11309605527AA27880F991FAA1FA41710F0A41BA4
S113097083955051B9F7A05DAA3308F0A95DA193FE
S1130980009779F7B111B1931192CB010C94C8047B
S1130990DC01FC01672F71917723E1F7329704C0E2
S11309A07C916D9370836291AE17BF07C8F308956D
S10709B0F894FFCFE5
S11309B4444154453A20323031362F31322F3031CC
S11309C40054696D653A2031323A30303A3030207F
S11309D4200041504F43414C595053452121005468
S11309E44553545F4C4344005570646174696E67A5
S11309F42073637265656E005072657373206D6F46
S1130A04646520330074696D657320746F206578A0
S10F0A1469740050415353454421000014
S9030000FC
